{"contracts/VIBE.sol":{"VIBE":{"abi":[{"inputs":[{"internalType":"address","name":"initialOwner","type":"address"}],"stateMutability":"nonpayable","type":"constructor"},{"inputs":[{"internalType":"address","name":"owner","type":"address"}],"name":"OwnableInvalidOwner","type":"error"},{"inputs":[{"internalType":"address","name":"account","type":"address"}],"name":"OwnableUnauthorizedAccount","type":"error"},{"inputs":[],"name":"ReentrancyGuardReentrantCall","type":"error"},{"anonymous":false,"inputs":[{"indexed":true,"internalType":"uint256","name":"gameId","type":"uint256"},{"indexed":false,"internalType":"uint256","name":"amount","type":"uint256"}],"name":"FeeWithdrawn","type":"event"},{"anonymous":false,"inputs":[{"indexed":true,"internalType":"uint256","name":"gameId","type":"uint256"},{"indexed":true,"internalType":"address","name":"creator","type":"address"},{"indexed":false,"internalType":"uint256","name":"budget","type":"uint256"}],"name":"GameCreated","type":"event"},{"anonymous":false,"inputs":[{"indexed":true,"internalType":"uint256","name":"gameId","type":"uint256"},{"indexed":false,"internalType":"uint256","name":"rewardsDistributed","type":"uint256"},{"indexed":false,"internalType":"uint256","name":"refunded","type":"uint256"}],"name":"GameEnded","type":"event"},{"anonymous":false,"inputs":[{"indexed":true,"internalType":"address","name":"previousOwner","type":"address"},{"indexed":true,"internalType":"address","name":"newOwner","type":"address"}],"name":"OwnershipTransferred","type":"event"},{"anonymous":false,"inputs":[{"indexed":true,"internalType":"uint256","name":"gameId","type":"uint256"},{"indexed":true,"internalType":"address","name":"player","type":"address"},{"indexed":false,"internalType":"uint256","name":"amount","type":"uint256"}],"name":"RewardDistributed","type":"event"},{"inputs":[],"name":"CREATOR_FEE","outputs":[{"internalType":"uint256","name":"","type":"uint256"}],"stateMutability":"view","type":"function"},{"inputs":[],"name":"createGame","outputs":[{"internalType":"uint256","name":"","type":"uint256"}],"stateMutability":"payable","type":"function"},{"inputs":[{"internalType":"uint256","name":"_gameId","type":"uint256"},{"internalType":"address[]","name":"_players","type":"address[]"},{"internalType":"uint256[]","name":"_rewards","type":"uint256[]"}],"name":"endGame","outputs":[],"stateMutability":"nonpayable","type":"function"},{"inputs":[],"name":"gameCounter","outputs":[{"internalType":"uint256","name":"","type":"uint256"}],"stateMutability":"view","type":"function"},{"inputs":[{"internalType":"uint256","name":"","type":"uint256"}],"name":"games","outputs":[{"internalType":"address","name":"gameCreator","type":"address"},{"internalType":"uint256","name":"budget","type":"uint256"},{"internalType":"bool","name":"isEnded","type":"bool"},{"internalType":"uint256","name":"feeCollected","type":"uint256"}],"stateMutability":"view","type":"function"},{"inputs":[],"name":"getContractBalance","outputs":[{"internalType":"uint256","name":"","type":"uint256"}],"stateMutability":"view","type":"function"},{"inputs":[{"internalType":"uint256","name":"_gameId","type":"uint256"}],"name":"getGameDetails","outputs":[{"internalType":"address","name":"creator","type":"address"},{"internalType":"uint256","name":"budget","type":"uint256"},{"internalType":"bool","name":"isEnded","type":"bool"},{"internalType":"uint256","name":"feeCollected","type":"uint256"}],"stateMutability":"view","type":"function"},{"inputs":[],"name":"owner","outputs":[{"internalType":"address","name":"","type":"address"}],"stateMutability":"view","type":"function"},{"inputs":[],"name":"renounceOwnership","outputs":[],"stateMutability":"nonpayable","type":"function"},{"inputs":[{"internalType":"address","name":"newOwner","type":"address"}],"name":"transferOwnership","outputs":[],"stateMutability":"nonpayable","type":"function"},{"inputs":[{"internalType":"uint256","name":"_gameId","type":"uint256"}],"name":"withdrawFee","outputs":[],"stateMutability":"nonpayable","type":"function"},{"stateMutability":"payable","type":"receive"}],"evm":{"bytecode":{"linkReferences":{},"object":"608060405234801561001057600080fd5b5060405161108638038061108683398101604081905261002f916100fc565b806001600160a01b038116610063576000604051631e4fbdf760e01b815260040161005a9190610134565b60405180910390fd5b61006c81610077565b505060018055610142565b600080546001600160a01b038381166001600160a01b0319831681178455604051919092169283917f8be0079c531659141344cd1fd0a4f28419497f9722a3daafe3b4186f6b6457e09190a35050565b60006001600160a01b0382165b92915050565b6100e3816100c7565b81146100ee57600080fd5b50565b80516100d4816100da565b60006020828403121561011157610111600080fd5b600061011d84846100f1565b949350505050565b61012e816100c7565b82525050565b602081016100d48284610125565b610f35806101516000396000f3fe6080604052600436106100a05760003560e01c8063715018a611610064578063715018a6146101b25780637255d729146101c95780638da5cb5b146101d1578063be357616146101f7578063c5411dbd14610217578063f2fde38b1461023757600080fd5b8063117a5b90146100ac5780631a7dfa9f146101165780631b31abda146101385780632e0be39a146101895780636f9fb98a1461019f57600080fd5b366100a757005b600080fd5b3480156100b857600080fd5b506100fd6100c7366004610984565b600360208190526000918252604090912080546001820154600283015492909301546001600160a01b03909116929160ff169084565b60405161010d94939291906109db565b60405180910390f35b34801561012257600080fd5b5061012b600581565b60405161010d9190610a19565b34801561014457600080fd5b506100fd610153366004610984565b600090815260036020819052604090912080546001820154600283015492909301546001600160a01b039091169360ff90921691565b34801561019557600080fd5b5061012b60025481565b3480156101ab57600080fd5b504761012b565b3480156101be57600080fd5b506101c7610257565b005b61012b61026b565b3480156101dd57600080fd5b506000546001600160a01b031660405161010d9190610a27565b34801561020357600080fd5b506101c7610212366004610984565b610374565b34801561022357600080fd5b506101c7610232366004610a87565b6104b9565b34801561024357600080fd5b506101c7610252366004610b2b565b610884565b61025f6108bf565b61026960006108ec565b565b600061027561093c565b6000341161029e5760405162461bcd60e51b815260040161029590610b83565b60405180910390fd5b600280549060006102ae83610ba9565b9091555050604080516080810182523380825234602080840182815260008587018181526060870182815260028054845260039586905292899020975188546001600160a01b0319166001600160a01b039091161788559251600188015551868201805460ff191691151591909117905590519490910193909355915492519092917f7dfb67e9ff596fca4da65c7eedb128cd1aac553af54b3c0cb733625a2480d8bd9161035c9190610a19565b60405180910390a35060025461037160018055565b90565b61037c6108bf565b61038461093c565b6000818152600360205260409020600281015460ff166103b65760405162461bcd60e51b815260040161029590610be8565b60008160030154116103da5760405162461bcd60e51b815260040161029590610c20565b600381018054600091829055906103f96000546001600160a01b031690565b6001600160a01b03168260405161040f90610c30565b60006040518083038185875af1925050503d806000811461044c576040519150601f19603f3d011682016040523d82523d6000602084013e610451565b606091505b50509050806104725760405162461bcd60e51b815260040161029590610c62565b837f0a86d3615abd799fbaa5be89d4941a68641aec3f02b8f19faff5dfade02817bc836040516104a29190610a19565b60405180910390a25050506104b660018055565b50565b6104c161093c565b600085815260036020526040902080546001600160a01b031633146104f85760405162461bcd60e51b815260040161029590610ca6565b600281015460ff161561051d5760405162461bcd60e51b815260040161029590610cdf565b83821461053c5760405162461bcd60e51b815260040161029590610d1c565b836105595760405162461bcd60e51b815260040161029590610d56565b6000805b838110156105935784848281811061057757610577610d66565b90506020020135826105899190610d7c565b915060010161055d565b5081600101548111156105b85760405162461bcd60e51b815260040161029590610dbb565b60006064600584600101546105cd9190610dcb565b6105d79190610e00565b60038401819055905060005b8681101561077d5760008888838181106105ff576105ff610d66565b90506020020160208101906106149190610b2b565b6001600160a01b03160361063a5760405162461bcd60e51b815260040161029590610e41565b600088888381811061064e5761064e610d66565b90506020020160208101906106639190610b2b565b6001600160a01b031687878481811061067e5761067e610d66565b9050602002013560405161069190610c30565b60006040518083038185875af1925050503d80600081146106ce576040519150601f19603f3d011682016040523d82523d6000602084013e6106d3565b606091505b50509050806106f45760405162461bcd60e51b815260040161029590610e7e565b88888381811061070657610706610d66565b905060200201602081019061071b9190610b2b565b6001600160a01b03168a7fab7542bafced3da2d8c881cb2dd1de859fac7c20d3650d2902ad389a64e0888389898681811061075857610758610d66565b9050602002013560405161076c9190610a19565b60405180910390a3506001016105e3565b506000818385600101546107919190610e8e565b61079b9190610e8e565b905080156108255783546040516000916001600160a01b03169083906107c090610c30565b60006040518083038185875af1925050503d80600081146107fd576040519150601f19603f3d011682016040523d82523d6000602084013e610802565b606091505b50509050806108235760405162461bcd60e51b815260040161029590610ecd565b505b60028401805460ff1916600117905560405189907f60fdf8ff21cc2a16c8c00fc5b24af7989568bb3f6227bc15ab4545a53255f69f906108689086908590610edd565b60405180910390a25050505061087d60018055565b5050505050565b61088c6108bf565b6001600160a01b0381166108b6576000604051631e4fbdf760e01b81526004016102959190610a27565b6104b6816108ec565b6000546001600160a01b03163314610269573360405163118cdaa760e01b81526004016102959190610a27565b600080546001600160a01b038381166001600160a01b0319831681178455604051919092169283917f8be0079c531659141344cd1fd0a4f28419497f9722a3daafe3b4186f6b6457e09190a35050565b60026001540361095f57604051633ee5aeb560e01b815260040160405180910390fd5b6002600155565b805b81146104b657600080fd5b803561097e81610966565b92915050565b60006020828403121561099957610999600080fd5b60006109a58484610973565b949350505050565b60006001600160a01b03821661097e565b6109c7816109ad565b82525050565b806109c7565b8015156109c7565b608081016109e982876109be565b6109f660208301866109cd565b610a0360408301856109d3565b610a1060608301846109cd565b95945050505050565b6020810161097e82846109cd565b6020810161097e82846109be565b60008083601f840112610a4a57610a4a600080fd5b50813567ffffffffffffffff811115610a6557610a65600080fd5b602083019150836020820283011115610a8057610a80600080fd5b9250929050565b600080600080600060608688031215610aa257610aa2600080fd5b6000610aae8888610973565b955050602086013567ffffffffffffffff811115610ace57610ace600080fd5b610ada88828901610a35565b9450945050604086013567ffffffffffffffff811115610afc57610afc600080fd5b610b0888828901610a35565b92509250509295509295909350565b610968816109ad565b803561097e81610b17565b600060208284031215610b4057610b40600080fd5b60006109a58484610b20565b601d81526000602082017f427564676574206d7573742062652067726561746572207468616e2030000000815291505b5060200190565b6020808252810161097e81610b4c565b634e487b7160e01b600052601160045260246000fd5b60006000198203610bbc57610bbc610b93565b5060010190565b600e81526000602082016d11d85b59481b9bdd08195b99195960921b81529150610b7c565b6020808252810161097e81610bc3565b6011815260006020820170139bc8199959481d1bc818dbdb1b1958dd607a1b81529150610b7c565b6020808252810161097e81610bf8565b60008161097e565b6013815260006020820172119959481d1c985b9cd9995c8819985a5b1959606a1b81529150610b7c565b6020808252810161097e81610c38565b601e81526000602082017f4f6e6c792067616d652063726561746f722063616e20656e642067616d65000081529150610b7c565b6020808252810161097e81610c72565b601281526000602082017111d85b5948185b1c9958591e48195b99195960721b81529150610b7c565b6020808252810161097e81610cb6565b6016815260006020820175082e4e4c2f2e640d8cadccee8d040dad2e6dac2e8c6d60531b81529150610b7c565b6020808252810161097e81610cef565b6013815260006020820172139bc81c1b185e595c9cc81c1c9bdd9a591959606a1b81529150610b7c565b6020808252810161097e81610d2c565b634e487b7160e01b600052603260045260246000fd5b8082018082111561097e5761097e610b93565b601581526000602082017414995dd85c991cc8195e18d9595908189d5919d95d605a1b81529150610b7c565b6020808252810161097e81610d8f565b818102808215838204851417610de357610de3610b93565b5092915050565b634e487b7160e01b600052601260045260246000fd5b600082610e0f57610e0f610dea565b500490565b6016815260006020820175496e76616c696420706c61796572206164647265737360501b81529150610b7c565b6020808252810161097e81610e14565b601681526000602082017514995dd85c99081d1c985b9cd9995c8819985a5b195960521b81529150610b7c565b6020808252810161097e81610e51565b8181038181111561097e5761097e610b93565b601581526000602082017414dd5c9c1b1d5cc81c99599d5b990819985a5b1959605a1b81529150610b7c565b6020808252810161097e81610ea1565b60408101610eeb82856109cd565b610ef860208301846109cd565b939250505056fea26469706673582212207e9b8e94651a024b646fd0410eeae7b5a214e63b93b29c8ff00e55a3114ad38f64736f6c634300081a0033","opcodes":"PUSH1 0x80 PUSH1 0x40 MSTORE CALLVALUE DUP1 ISZERO PUSH2 0x10 JUMPI PUSH1 0x0 DUP1 REVERT JUMPDEST POP PUSH1 0x40 MLOAD PUSH2 0x1086 CODESIZE SUB DUP1 PUSH2 0x1086 DUP4 CODECOPY DUP2 ADD PUSH1 0x40 DUP2 SWAP1 MSTORE PUSH2 0x2F SWAP2 PUSH2 0xFC JUMP JUMPDEST DUP1 PUSH1 0x1 PUSH1 0x1 PUSH1 0xA0 SHL SUB DUP2 AND PUSH2 0x63 JUMPI PUSH1 0x0 PUSH1 0x40 MLOAD PUSH4 0x1E4FBDF7 PUSH1 0xE0 SHL DUP2 MSTORE PUSH1 0x4 ADD PUSH2 0x5A SWAP2 SWAP1 PUSH2 0x134 JUMP JUMPDEST PUSH1 0x40 MLOAD DUP1 SWAP2 SUB SWAP1 REVERT JUMPDEST PUSH2 0x6C DUP2 PUSH2 0x77 JUMP JUMPDEST POP POP PUSH1 0x1 DUP1 SSTORE PUSH2 0x142 JUMP JUMPDEST PUSH1 0x0 DUP1 SLOAD PUSH1 0x1 PUSH1 0x1 PUSH1 0xA0 SHL SUB DUP4 DUP2 AND PUSH1 0x1 PUSH1 0x1 PUSH1 0xA0 SHL SUB NOT DUP4 AND DUP2 OR DUP5 SSTORE PUSH1 0x40 MLOAD SWAP2 SWAP1 SWAP3 AND SWAP3 DUP4 SWAP2 PUSH32 0x8BE0079C531659141344CD1FD0A4F28419497F9722A3DAAFE3B4186F6B6457E0 SWAP2 SWAP1 LOG3 POP POP JUMP JUMPDEST PUSH1 0x0 PUSH1 0x1 PUSH1 0x1 PUSH1 0xA0 SHL SUB DUP3 AND JUMPDEST SWAP3 SWAP2 POP POP JUMP JUMPDEST PUSH2 0xE3 DUP2 PUSH2 0xC7 JUMP JUMPDEST DUP2 EQ PUSH2 0xEE JUMPI PUSH1 0x0 DUP1 REVERT JUMPDEST POP JUMP JUMPDEST DUP1 MLOAD PUSH2 0xD4 DUP2 PUSH2 0xDA JUMP JUMPDEST PUSH1 0x0 PUSH1 0x20 DUP3 DUP5 SUB SLT ISZERO PUSH2 0x111 JUMPI PUSH2 0x111 PUSH1 0x0 DUP1 REVERT JUMPDEST PUSH1 0x0 PUSH2 0x11D DUP5 DUP5 PUSH2 0xF1 JUMP JUMPDEST SWAP5 SWAP4 POP POP POP POP JUMP JUMPDEST PUSH2 0x12E DUP2 PUSH2 0xC7 JUMP JUMPDEST DUP3 MSTORE POP POP JUMP JUMPDEST PUSH1 0x20 DUP2 ADD PUSH2 0xD4 DUP3 DUP5 PUSH2 0x125 JUMP JUMPDEST PUSH2 0xF35 DUP1 PUSH2 0x151 PUSH1 0x0 CODECOPY PUSH1 0x0 RETURN INVALID PUSH1 0x80 PUSH1 0x40 MSTORE PUSH1 0x4 CALLDATASIZE LT PUSH2 0xA0 JUMPI PUSH1 0x0 CALLDATALOAD PUSH1 0xE0 SHR DUP1 PUSH4 0x715018A6 GT PUSH2 0x64 JUMPI DUP1 PUSH4 0x715018A6 EQ PUSH2 0x1B2 JUMPI DUP1 PUSH4 0x7255D729 EQ PUSH2 0x1C9 JUMPI DUP1 PUSH4 0x8DA5CB5B EQ PUSH2 0x1D1 JUMPI DUP1 PUSH4 0xBE357616 EQ PUSH2 0x1F7 JUMPI DUP1 PUSH4 0xC5411DBD EQ PUSH2 0x217 JUMPI DUP1 PUSH4 0xF2FDE38B EQ PUSH2 0x237 JUMPI PUSH1 0x0 DUP1 REVERT JUMPDEST DUP1 PUSH4 0x117A5B90 EQ PUSH2 0xAC JUMPI DUP1 PUSH4 0x1A7DFA9F EQ PUSH2 0x116 JUMPI DUP1 PUSH4 0x1B31ABDA EQ PUSH2 0x138 JUMPI DUP1 PUSH4 0x2E0BE39A EQ PUSH2 0x189 JUMPI DUP1 PUSH4 0x6F9FB98A EQ PUSH2 0x19F JUMPI PUSH1 0x0 DUP1 REVERT JUMPDEST CALLDATASIZE PUSH2 0xA7 JUMPI STOP JUMPDEST PUSH1 0x0 DUP1 REVERT JUMPDEST CALLVALUE DUP1 ISZERO PUSH2 0xB8 JUMPI PUSH1 0x0 DUP1 REVERT JUMPDEST POP PUSH2 0xFD PUSH2 0xC7 CALLDATASIZE PUSH1 0x4 PUSH2 0x984 JUMP JUMPDEST PUSH1 0x3 PUSH1 0x20 DUP2 SWAP1 MSTORE PUSH1 0x0 SWAP2 DUP3 MSTORE PUSH1 0x40 SWAP1 SWAP2 KECCAK256 DUP1 SLOAD PUSH1 0x1 DUP3 ADD SLOAD PUSH1 0x2 DUP4 ADD SLOAD SWAP3 SWAP1 SWAP4 ADD SLOAD PUSH1 0x1 PUSH1 0x1 PUSH1 0xA0 SHL SUB SWAP1 SWAP2 AND SWAP3 SWAP2 PUSH1 0xFF AND SWAP1 DUP5 JUMP JUMPDEST PUSH1 0x40 MLOAD PUSH2 0x10D SWAP5 SWAP4 SWAP3 SWAP2 SWAP1 PUSH2 0x9DB JUMP JUMPDEST PUSH1 0x40 MLOAD DUP1 SWAP2 SUB SWAP1 RETURN JUMPDEST CALLVALUE DUP1 ISZERO PUSH2 0x122 JUMPI PUSH1 0x0 DUP1 REVERT JUMPDEST POP PUSH2 0x12B PUSH1 0x5 DUP2 JUMP JUMPDEST PUSH1 0x40 MLOAD PUSH2 0x10D SWAP2 SWAP1 PUSH2 0xA19 JUMP JUMPDEST CALLVALUE DUP1 ISZERO PUSH2 0x144 JUMPI PUSH1 0x0 DUP1 REVERT JUMPDEST POP PUSH2 0xFD PUSH2 0x153 CALLDATASIZE PUSH1 0x4 PUSH2 0x984 JUMP JUMPDEST PUSH1 0x0 SWAP1 DUP2 MSTORE PUSH1 0x3 PUSH1 0x20 DUP2 SWAP1 MSTORE PUSH1 0x40 SWAP1 SWAP2 KECCAK256 DUP1 SLOAD PUSH1 0x1 DUP3 ADD SLOAD PUSH1 0x2 DUP4 ADD SLOAD SWAP3 SWAP1 SWAP4 ADD SLOAD PUSH1 0x1 PUSH1 0x1 PUSH1 0xA0 SHL SUB SWAP1 SWAP2 AND SWAP4 PUSH1 0xFF SWAP1 SWAP3 AND SWAP2 JUMP JUMPDEST CALLVALUE DUP1 ISZERO PUSH2 0x195 JUMPI PUSH1 0x0 DUP1 REVERT JUMPDEST POP PUSH2 0x12B PUSH1 0x2 SLOAD DUP2 JUMP JUMPDEST CALLVALUE DUP1 ISZERO PUSH2 0x1AB JUMPI PUSH1 0x0 DUP1 REVERT JUMPDEST POP SELFBALANCE PUSH2 0x12B JUMP JUMPDEST CALLVALUE DUP1 ISZERO PUSH2 0x1BE JUMPI PUSH1 0x0 DUP1 REVERT JUMPDEST POP PUSH2 0x1C7 PUSH2 0x257 JUMP JUMPDEST STOP JUMPDEST PUSH2 0x12B PUSH2 0x26B JUMP JUMPDEST CALLVALUE DUP1 ISZERO PUSH2 0x1DD JUMPI PUSH1 0x0 DUP1 REVERT JUMPDEST POP PUSH1 0x0 SLOAD PUSH1 0x1 PUSH1 0x1 PUSH1 0xA0 SHL SUB AND PUSH1 0x40 MLOAD PUSH2 0x10D SWAP2 SWAP1 PUSH2 0xA27 JUMP JUMPDEST CALLVALUE DUP1 ISZERO PUSH2 0x203 JUMPI PUSH1 0x0 DUP1 REVERT JUMPDEST POP PUSH2 0x1C7 PUSH2 0x212 CALLDATASIZE PUSH1 0x4 PUSH2 0x984 JUMP JUMPDEST PUSH2 0x374 JUMP JUMPDEST CALLVALUE DUP1 ISZERO PUSH2 0x223 JUMPI PUSH1 0x0 DUP1 REVERT JUMPDEST POP PUSH2 0x1C7 PUSH2 0x232 CALLDATASIZE PUSH1 0x4 PUSH2 0xA87 JUMP JUMPDEST PUSH2 0x4B9 JUMP JUMPDEST CALLVALUE DUP1 ISZERO PUSH2 0x243 JUMPI PUSH1 0x0 DUP1 REVERT JUMPDEST POP PUSH2 0x1C7 PUSH2 0x252 CALLDATASIZE PUSH1 0x4 PUSH2 0xB2B JUMP JUMPDEST PUSH2 0x884 JUMP JUMPDEST PUSH2 0x25F PUSH2 0x8BF JUMP JUMPDEST PUSH2 0x269 PUSH1 0x0 PUSH2 0x8EC JUMP JUMPDEST JUMP JUMPDEST PUSH1 0x0 PUSH2 0x275 PUSH2 0x93C JUMP JUMPDEST PUSH1 0x0 CALLVALUE GT PUSH2 0x29E JUMPI PUSH1 0x40 MLOAD PUSH3 0x461BCD PUSH1 0xE5 SHL DUP2 MSTORE PUSH1 0x4 ADD PUSH2 0x295 SWAP1 PUSH2 0xB83 JUMP JUMPDEST PUSH1 0x40 MLOAD DUP1 SWAP2 SUB SWAP1 REVERT JUMPDEST PUSH1 0x2 DUP1 SLOAD SWAP1 PUSH1 0x0 PUSH2 0x2AE DUP4 PUSH2 0xBA9 JUMP JUMPDEST SWAP1 SWAP2 SSTORE POP POP PUSH1 0x40 DUP1 MLOAD PUSH1 0x80 DUP2 ADD DUP3 MSTORE CALLER DUP1 DUP3 MSTORE CALLVALUE PUSH1 0x20 DUP1 DUP5 ADD DUP3 DUP2 MSTORE PUSH1 0x0 DUP6 DUP8 ADD DUP2 DUP2 MSTORE PUSH1 0x60 DUP8 ADD DUP3 DUP2 MSTORE PUSH1 0x2 DUP1 SLOAD DUP5 MSTORE PUSH1 0x3 SWAP6 DUP7 SWAP1 MSTORE SWAP3 DUP10 SWAP1 KECCAK256 SWAP8 MLOAD DUP9 SLOAD PUSH1 0x1 PUSH1 0x1 PUSH1 0xA0 SHL SUB NOT AND PUSH1 0x1 PUSH1 0x1 PUSH1 0xA0 SHL SUB SWAP1 SWAP2 AND OR DUP9 SSTORE SWAP3 MLOAD PUSH1 0x1 DUP9 ADD SSTORE MLOAD DUP7 DUP3 ADD DUP1 SLOAD PUSH1 0xFF NOT AND SWAP2 ISZERO ISZERO SWAP2 SWAP1 SWAP2 OR SWAP1 SSTORE SWAP1 MLOAD SWAP5 SWAP1 SWAP2 ADD SWAP4 SWAP1 SWAP4 SSTORE SWAP2 SLOAD SWAP3 MLOAD SWAP1 SWAP3 SWAP2 PUSH32 0x7DFB67E9FF596FCA4DA65C7EEDB128CD1AAC553AF54B3C0CB733625A2480D8BD SWAP2 PUSH2 0x35C SWAP2 SWAP1 PUSH2 0xA19 JUMP JUMPDEST PUSH1 0x40 MLOAD DUP1 SWAP2 SUB SWAP1 LOG3 POP PUSH1 0x2 SLOAD PUSH2 0x371 PUSH1 0x1 DUP1 SSTORE JUMP JUMPDEST SWAP1 JUMP JUMPDEST PUSH2 0x37C PUSH2 0x8BF JUMP JUMPDEST PUSH2 0x384 PUSH2 0x93C JUMP JUMPDEST PUSH1 0x0 DUP2 DUP2 MSTORE PUSH1 0x3 PUSH1 0x20 MSTORE PUSH1 0x40 SWAP1 KECCAK256 PUSH1 0x2 DUP2 ADD SLOAD PUSH1 0xFF AND PUSH2 0x3B6 JUMPI PUSH1 0x40 MLOAD PUSH3 0x461BCD PUSH1 0xE5 SHL DUP2 MSTORE PUSH1 0x4 ADD PUSH2 0x295 SWAP1 PUSH2 0xBE8 JUMP JUMPDEST PUSH1 0x0 DUP2 PUSH1 0x3 ADD SLOAD GT PUSH2 0x3DA JUMPI PUSH1 0x40 MLOAD PUSH3 0x461BCD PUSH1 0xE5 SHL DUP2 MSTORE PUSH1 0x4 ADD PUSH2 0x295 SWAP1 PUSH2 0xC20 JUMP JUMPDEST PUSH1 0x3 DUP2 ADD DUP1 SLOAD PUSH1 0x0 SWAP2 DUP3 SWAP1 SSTORE SWAP1 PUSH2 0x3F9 PUSH1 0x0 SLOAD PUSH1 0x1 PUSH1 0x1 PUSH1 0xA0 SHL SUB AND SWAP1 JUMP JUMPDEST PUSH1 0x1 PUSH1 0x1 PUSH1 0xA0 SHL SUB AND DUP3 PUSH1 0x40 MLOAD PUSH2 0x40F SWAP1 PUSH2 0xC30 JUMP JUMPDEST PUSH1 0x0 PUSH1 0x40 MLOAD DUP1 DUP4 SUB DUP2 DUP6 DUP8 GAS CALL SWAP3 POP POP POP RETURNDATASIZE DUP1 PUSH1 0x0 DUP2 EQ PUSH2 0x44C JUMPI PUSH1 0x40 MLOAD SWAP2 POP PUSH1 0x1F NOT PUSH1 0x3F RETURNDATASIZE ADD AND DUP3 ADD PUSH1 0x40 MSTORE RETURNDATASIZE DUP3 MSTORE RETURNDATASIZE PUSH1 0x0 PUSH1 0x20 DUP5 ADD RETURNDATACOPY PUSH2 0x451 JUMP JUMPDEST PUSH1 0x60 SWAP2 POP JUMPDEST POP POP SWAP1 POP DUP1 PUSH2 0x472 JUMPI PUSH1 0x40 MLOAD PUSH3 0x461BCD PUSH1 0xE5 SHL DUP2 MSTORE PUSH1 0x4 ADD PUSH2 0x295 SWAP1 PUSH2 0xC62 JUMP JUMPDEST DUP4 PUSH32 0xA86D3615ABD799FBAA5BE89D4941A68641AEC3F02B8F19FAFF5DFADE02817BC DUP4 PUSH1 0x40 MLOAD PUSH2 0x4A2 SWAP2 SWAP1 PUSH2 0xA19 JUMP JUMPDEST PUSH1 0x40 MLOAD DUP1 SWAP2 SUB SWAP1 LOG2 POP POP POP PUSH2 0x4B6 PUSH1 0x1 DUP1 SSTORE JUMP JUMPDEST POP JUMP JUMPDEST PUSH2 0x4C1 PUSH2 0x93C JUMP JUMPDEST PUSH1 0x0 DUP6 DUP2 MSTORE PUSH1 0x3 PUSH1 0x20 MSTORE PUSH1 0x40 SWAP1 KECCAK256 DUP1 SLOAD PUSH1 0x1 PUSH1 0x1 PUSH1 0xA0 SHL SUB AND CALLER EQ PUSH2 0x4F8 JUMPI PUSH1 0x40 MLOAD PUSH3 0x461BCD PUSH1 0xE5 SHL DUP2 MSTORE PUSH1 0x4 ADD PUSH2 0x295 SWAP1 PUSH2 0xCA6 JUMP JUMPDEST PUSH1 0x2 DUP2 ADD SLOAD PUSH1 0xFF AND ISZERO PUSH2 0x51D JUMPI PUSH1 0x40 MLOAD PUSH3 0x461BCD PUSH1 0xE5 SHL DUP2 MSTORE PUSH1 0x4 ADD PUSH2 0x295 SWAP1 PUSH2 0xCDF JUMP JUMPDEST DUP4 DUP3 EQ PUSH2 0x53C JUMPI PUSH1 0x40 MLOAD PUSH3 0x461BCD PUSH1 0xE5 SHL DUP2 MSTORE PUSH1 0x4 ADD PUSH2 0x295 SWAP1 PUSH2 0xD1C JUMP JUMPDEST DUP4 PUSH2 0x559 JUMPI PUSH1 0x40 MLOAD PUSH3 0x461BCD PUSH1 0xE5 SHL DUP2 MSTORE PUSH1 0x4 ADD PUSH2 0x295 SWAP1 PUSH2 0xD56 JUMP JUMPDEST PUSH1 0x0 DUP1 JUMPDEST DUP4 DUP2 LT ISZERO PUSH2 0x593 JUMPI DUP5 DUP5 DUP3 DUP2 DUP2 LT PUSH2 0x577 JUMPI PUSH2 0x577 PUSH2 0xD66 JUMP JUMPDEST SWAP1 POP PUSH1 0x20 MUL ADD CALLDATALOAD DUP3 PUSH2 0x589 SWAP2 SWAP1 PUSH2 0xD7C JUMP JUMPDEST SWAP2 POP PUSH1 0x1 ADD PUSH2 0x55D JUMP JUMPDEST POP DUP2 PUSH1 0x1 ADD SLOAD DUP2 GT ISZERO PUSH2 0x5B8 JUMPI PUSH1 0x40 MLOAD PUSH3 0x461BCD PUSH1 0xE5 SHL DUP2 MSTORE PUSH1 0x4 ADD PUSH2 0x295 SWAP1 PUSH2 0xDBB JUMP JUMPDEST PUSH1 0x0 PUSH1 0x64 PUSH1 0x5 DUP5 PUSH1 0x1 ADD SLOAD PUSH2 0x5CD SWAP2 SWAP1 PUSH2 0xDCB JUMP JUMPDEST PUSH2 0x5D7 SWAP2 SWAP1 PUSH2 0xE00 JUMP JUMPDEST PUSH1 0x3 DUP5 ADD DUP2 SWAP1 SSTORE SWAP1 POP PUSH1 0x0 JUMPDEST DUP7 DUP2 LT ISZERO PUSH2 0x77D JUMPI PUSH1 0x0 DUP9 DUP9 DUP4 DUP2 DUP2 LT PUSH2 0x5FF JUMPI PUSH2 0x5FF PUSH2 0xD66 JUMP JUMPDEST SWAP1 POP PUSH1 0x20 MUL ADD PUSH1 0x20 DUP2 ADD SWAP1 PUSH2 0x614 SWAP2 SWAP1 PUSH2 0xB2B JUMP JUMPDEST PUSH1 0x1 PUSH1 0x1 PUSH1 0xA0 SHL SUB AND SUB PUSH2 0x63A JUMPI PUSH1 0x40 MLOAD PUSH3 0x461BCD PUSH1 0xE5 SHL DUP2 MSTORE PUSH1 0x4 ADD PUSH2 0x295 SWAP1 PUSH2 0xE41 JUMP JUMPDEST PUSH1 0x0 DUP9 DUP9 DUP4 DUP2 DUP2 LT PUSH2 0x64E JUMPI PUSH2 0x64E PUSH2 0xD66 JUMP JUMPDEST SWAP1 POP PUSH1 0x20 MUL ADD PUSH1 0x20 DUP2 ADD SWAP1 PUSH2 0x663 SWAP2 SWAP1 PUSH2 0xB2B JUMP JUMPDEST PUSH1 0x1 PUSH1 0x1 PUSH1 0xA0 SHL SUB AND DUP8 DUP8 DUP5 DUP2 DUP2 LT PUSH2 0x67E JUMPI PUSH2 0x67E PUSH2 0xD66 JUMP JUMPDEST SWAP1 POP PUSH1 0x20 MUL ADD CALLDATALOAD PUSH1 0x40 MLOAD PUSH2 0x691 SWAP1 PUSH2 0xC30 JUMP JUMPDEST PUSH1 0x0 PUSH1 0x40 MLOAD DUP1 DUP4 SUB DUP2 DUP6 DUP8 GAS CALL SWAP3 POP POP POP RETURNDATASIZE DUP1 PUSH1 0x0 DUP2 EQ PUSH2 0x6CE JUMPI PUSH1 0x40 MLOAD SWAP2 POP PUSH1 0x1F NOT PUSH1 0x3F RETURNDATASIZE ADD AND DUP3 ADD PUSH1 0x40 MSTORE RETURNDATASIZE DUP3 MSTORE RETURNDATASIZE PUSH1 0x0 PUSH1 0x20 DUP5 ADD RETURNDATACOPY PUSH2 0x6D3 JUMP JUMPDEST PUSH1 0x60 SWAP2 POP JUMPDEST POP POP SWAP1 POP DUP1 PUSH2 0x6F4 JUMPI PUSH1 0x40 MLOAD PUSH3 0x461BCD PUSH1 0xE5 SHL DUP2 MSTORE PUSH1 0x4 ADD PUSH2 0x295 SWAP1 PUSH2 0xE7E JUMP JUMPDEST DUP9 DUP9 DUP4 DUP2 DUP2 LT PUSH2 0x706 JUMPI PUSH2 0x706 PUSH2 0xD66 JUMP JUMPDEST SWAP1 POP PUSH1 0x20 MUL ADD PUSH1 0x20 DUP2 ADD SWAP1 PUSH2 0x71B SWAP2 SWAP1 PUSH2 0xB2B JUMP JUMPDEST PUSH1 0x1 PUSH1 0x1 PUSH1 0xA0 SHL SUB AND DUP11 PUSH32 0xAB7542BAFCED3DA2D8C881CB2DD1DE859FAC7C20D3650D2902AD389A64E08883 DUP10 DUP10 DUP7 DUP2 DUP2 LT PUSH2 0x758 JUMPI PUSH2 0x758 PUSH2 0xD66 JUMP JUMPDEST SWAP1 POP PUSH1 0x20 MUL ADD CALLDATALOAD PUSH1 0x40 MLOAD PUSH2 0x76C SWAP2 SWAP1 PUSH2 0xA19 JUMP JUMPDEST PUSH1 0x40 MLOAD DUP1 SWAP2 SUB SWAP1 LOG3 POP PUSH1 0x1 ADD PUSH2 0x5E3 JUMP JUMPDEST POP PUSH1 0x0 DUP2 DUP4 DUP6 PUSH1 0x1 ADD SLOAD PUSH2 0x791 SWAP2 SWAP1 PUSH2 0xE8E JUMP JUMPDEST PUSH2 0x79B SWAP2 SWAP1 PUSH2 0xE8E JUMP JUMPDEST SWAP1 POP DUP1 ISZERO PUSH2 0x825 JUMPI DUP4 SLOAD PUSH1 0x40 MLOAD PUSH1 0x0 SWAP2 PUSH1 0x1 PUSH1 0x1 PUSH1 0xA0 SHL SUB AND SWAP1 DUP4 SWAP1 PUSH2 0x7C0 SWAP1 PUSH2 0xC30 JUMP JUMPDEST PUSH1 0x0 PUSH1 0x40 MLOAD DUP1 DUP4 SUB DUP2 DUP6 DUP8 GAS CALL SWAP3 POP POP POP RETURNDATASIZE DUP1 PUSH1 0x0 DUP2 EQ PUSH2 0x7FD JUMPI PUSH1 0x40 MLOAD SWAP2 POP PUSH1 0x1F NOT PUSH1 0x3F RETURNDATASIZE ADD AND DUP3 ADD PUSH1 0x40 MSTORE RETURNDATASIZE DUP3 MSTORE RETURNDATASIZE PUSH1 0x0 PUSH1 0x20 DUP5 ADD RETURNDATACOPY PUSH2 0x802 JUMP JUMPDEST PUSH1 0x60 SWAP2 POP JUMPDEST POP POP SWAP1 POP DUP1 PUSH2 0x823 JUMPI PUSH1 0x40 MLOAD PUSH3 0x461BCD PUSH1 0xE5 SHL DUP2 MSTORE PUSH1 0x4 ADD PUSH2 0x295 SWAP1 PUSH2 0xECD JUMP JUMPDEST POP JUMPDEST PUSH1 0x2 DUP5 ADD DUP1 SLOAD PUSH1 0xFF NOT AND PUSH1 0x1 OR SWAP1 SSTORE PUSH1 0x40 MLOAD DUP10 SWAP1 PUSH32 0x60FDF8FF21CC2A16C8C00FC5B24AF7989568BB3F6227BC15AB4545A53255F69F SWAP1 PUSH2 0x868 SWAP1 DUP7 SWAP1 DUP6 SWAP1 PUSH2 0xEDD JUMP JUMPDEST PUSH1 0x40 MLOAD DUP1 SWAP2 SUB SWAP1 LOG2 POP POP POP POP PUSH2 0x87D PUSH1 0x1 DUP1 SSTORE JUMP JUMPDEST POP POP POP POP POP JUMP JUMPDEST PUSH2 0x88C PUSH2 0x8BF JUMP JUMPDEST PUSH1 0x1 PUSH1 0x1 PUSH1 0xA0 SHL SUB DUP2 AND PUSH2 0x8B6 JUMPI PUSH1 0x0 PUSH1 0x40 MLOAD PUSH4 0x1E4FBDF7 PUSH1 0xE0 SHL DUP2 MSTORE PUSH1 0x4 ADD PUSH2 0x295 SWAP2 SWAP1 PUSH2 0xA27 JUMP JUMPDEST PUSH2 0x4B6 DUP2 PUSH2 0x8EC JUMP JUMPDEST PUSH1 0x0 SLOAD PUSH1 0x1 PUSH1 0x1 PUSH1 0xA0 SHL SUB AND CALLER EQ PUSH2 0x269 JUMPI CALLER PUSH1 0x40 MLOAD PUSH4 0x118CDAA7 PUSH1 0xE0 SHL DUP2 MSTORE PUSH1 0x4 ADD PUSH2 0x295 SWAP2 SWAP1 PUSH2 0xA27 JUMP JUMPDEST PUSH1 0x0 DUP1 SLOAD PUSH1 0x1 PUSH1 0x1 PUSH1 0xA0 SHL SUB DUP4 DUP2 AND PUSH1 0x1 PUSH1 0x1 PUSH1 0xA0 SHL SUB NOT DUP4 AND DUP2 OR DUP5 SSTORE PUSH1 0x40 MLOAD SWAP2 SWAP1 SWAP3 AND SWAP3 DUP4 SWAP2 PUSH32 0x8BE0079C531659141344CD1FD0A4F28419497F9722A3DAAFE3B4186F6B6457E0 SWAP2 SWAP1 LOG3 POP POP JUMP JUMPDEST PUSH1 0x2 PUSH1 0x1 SLOAD SUB PUSH2 0x95F JUMPI PUSH1 0x40 MLOAD PUSH4 0x3EE5AEB5 PUSH1 0xE0 SHL DUP2 MSTORE PUSH1 0x4 ADD PUSH1 0x40 MLOAD DUP1 SWAP2 SUB SWAP1 REVERT JUMPDEST PUSH1 0x2 PUSH1 0x1 SSTORE JUMP JUMPDEST DUP1 JUMPDEST DUP2 EQ PUSH2 0x4B6 JUMPI PUSH1 0x0 DUP1 REVERT JUMPDEST DUP1 CALLDATALOAD PUSH2 0x97E DUP2 PUSH2 0x966 JUMP JUMPDEST SWAP3 SWAP2 POP POP JUMP JUMPDEST PUSH1 0x0 PUSH1 0x20 DUP3 DUP5 SUB SLT ISZERO PUSH2 0x999 JUMPI PUSH2 0x999 PUSH1 0x0 DUP1 REVERT JUMPDEST PUSH1 0x0 PUSH2 0x9A5 DUP5 DUP5 PUSH2 0x973 JUMP JUMPDEST SWAP5 SWAP4 POP POP POP POP JUMP JUMPDEST PUSH1 0x0 PUSH1 0x1 PUSH1 0x1 PUSH1 0xA0 SHL SUB DUP3 AND PUSH2 0x97E JUMP JUMPDEST PUSH2 0x9C7 DUP2 PUSH2 0x9AD JUMP JUMPDEST DUP3 MSTORE POP POP JUMP JUMPDEST DUP1 PUSH2 0x9C7 JUMP JUMPDEST DUP1 ISZERO ISZERO PUSH2 0x9C7 JUMP JUMPDEST PUSH1 0x80 DUP2 ADD PUSH2 0x9E9 DUP3 DUP8 PUSH2 0x9BE JUMP JUMPDEST PUSH2 0x9F6 PUSH1 0x20 DUP4 ADD DUP7 PUSH2 0x9CD JUMP JUMPDEST PUSH2 0xA03 PUSH1 0x40 DUP4 ADD DUP6 PUSH2 0x9D3 JUMP JUMPDEST PUSH2 0xA10 PUSH1 0x60 DUP4 ADD DUP5 PUSH2 0x9CD JUMP JUMPDEST SWAP6 SWAP5 POP POP POP POP POP JUMP JUMPDEST PUSH1 0x20 DUP2 ADD PUSH2 0x97E DUP3 DUP5 PUSH2 0x9CD JUMP JUMPDEST PUSH1 0x20 DUP2 ADD PUSH2 0x97E DUP3 DUP5 PUSH2 0x9BE JUMP JUMPDEST PUSH1 0x0 DUP1 DUP4 PUSH1 0x1F DUP5 ADD SLT PUSH2 0xA4A JUMPI PUSH2 0xA4A PUSH1 0x0 DUP1 REVERT JUMPDEST POP DUP2 CALLDATALOAD PUSH8 0xFFFFFFFFFFFFFFFF DUP2 GT ISZERO PUSH2 0xA65 JUMPI PUSH2 0xA65 PUSH1 0x0 DUP1 REVERT JUMPDEST PUSH1 0x20 DUP4 ADD SWAP2 POP DUP4 PUSH1 0x20 DUP3 MUL DUP4 ADD GT ISZERO PUSH2 0xA80 JUMPI PUSH2 0xA80 PUSH1 0x0 DUP1 REVERT JUMPDEST SWAP3 POP SWAP3 SWAP1 POP JUMP JUMPDEST PUSH1 0x0 DUP1 PUSH1 0x0 DUP1 PUSH1 0x0 PUSH1 0x60 DUP7 DUP9 SUB SLT ISZERO PUSH2 0xAA2 JUMPI PUSH2 0xAA2 PUSH1 0x0 DUP1 REVERT JUMPDEST PUSH1 0x0 PUSH2 0xAAE DUP9 DUP9 PUSH2 0x973 JUMP JUMPDEST SWAP6 POP POP PUSH1 0x20 DUP7 ADD CALLDATALOAD PUSH8 0xFFFFFFFFFFFFFFFF DUP2 GT ISZERO PUSH2 0xACE JUMPI PUSH2 0xACE PUSH1 0x0 DUP1 REVERT JUMPDEST PUSH2 0xADA DUP9 DUP3 DUP10 ADD PUSH2 0xA35 JUMP JUMPDEST SWAP5 POP SWAP5 POP POP PUSH1 0x40 DUP7 ADD CALLDATALOAD PUSH8 0xFFFFFFFFFFFFFFFF DUP2 GT ISZERO PUSH2 0xAFC JUMPI PUSH2 0xAFC PUSH1 0x0 DUP1 REVERT JUMPDEST PUSH2 0xB08 DUP9 DUP3 DUP10 ADD PUSH2 0xA35 JUMP JUMPDEST SWAP3 POP SWAP3 POP POP SWAP3 SWAP6 POP SWAP3 SWAP6 SWAP1 SWAP4 POP JUMP JUMPDEST PUSH2 0x968 DUP2 PUSH2 0x9AD JUMP JUMPDEST DUP1 CALLDATALOAD PUSH2 0x97E DUP2 PUSH2 0xB17 JUMP JUMPDEST PUSH1 0x0 PUSH1 0x20 DUP3 DUP5 SUB SLT ISZERO PUSH2 0xB40 JUMPI PUSH2 0xB40 PUSH1 0x0 DUP1 REVERT JUMPDEST PUSH1 0x0 PUSH2 0x9A5 DUP5 DUP5 PUSH2 0xB20 JUMP JUMPDEST PUSH1 0x1D DUP2 MSTORE PUSH1 0x0 PUSH1 0x20 DUP3 ADD PUSH32 0x427564676574206D7573742062652067726561746572207468616E2030000000 DUP2 MSTORE SWAP2 POP JUMPDEST POP PUSH1 0x20 ADD SWAP1 JUMP JUMPDEST PUSH1 0x20 DUP1 DUP3 MSTORE DUP2 ADD PUSH2 0x97E DUP2 PUSH2 0xB4C JUMP JUMPDEST PUSH4 0x4E487B71 PUSH1 0xE0 SHL PUSH1 0x0 MSTORE PUSH1 0x11 PUSH1 0x4 MSTORE PUSH1 0x24 PUSH1 0x0 REVERT JUMPDEST PUSH1 0x0 PUSH1 0x0 NOT DUP3 SUB PUSH2 0xBBC JUMPI PUSH2 0xBBC PUSH2 0xB93 JUMP JUMPDEST POP PUSH1 0x1 ADD SWAP1 JUMP JUMPDEST PUSH1 0xE DUP2 MSTORE PUSH1 0x0 PUSH1 0x20 DUP3 ADD PUSH14 0x11D85B59481B9BDD08195B991959 PUSH1 0x92 SHL DUP2 MSTORE SWAP2 POP PUSH2 0xB7C JUMP JUMPDEST PUSH1 0x20 DUP1 DUP3 MSTORE DUP2 ADD PUSH2 0x97E DUP2 PUSH2 0xBC3 JUMP JUMPDEST PUSH1 0x11 DUP2 MSTORE PUSH1 0x0 PUSH1 0x20 DUP3 ADD PUSH17 0x139BC8199959481D1BC818DBDB1B1958DD PUSH1 0x7A SHL DUP2 MSTORE SWAP2 POP PUSH2 0xB7C JUMP JUMPDEST PUSH1 0x20 DUP1 DUP3 MSTORE DUP2 ADD PUSH2 0x97E DUP2 PUSH2 0xBF8 JUMP JUMPDEST PUSH1 0x0 DUP2 PUSH2 0x97E JUMP JUMPDEST PUSH1 0x13 DUP2 MSTORE PUSH1 0x0 PUSH1 0x20 DUP3 ADD PUSH19 0x119959481D1C985B9CD9995C8819985A5B1959 PUSH1 0x6A SHL DUP2 MSTORE SWAP2 POP PUSH2 0xB7C JUMP JUMPDEST PUSH1 0x20 DUP1 DUP3 MSTORE DUP2 ADD PUSH2 0x97E DUP2 PUSH2 0xC38 JUMP JUMPDEST PUSH1 0x1E DUP2 MSTORE PUSH1 0x0 PUSH1 0x20 DUP3 ADD PUSH32 0x4F6E6C792067616D652063726561746F722063616E20656E642067616D650000 DUP2 MSTORE SWAP2 POP PUSH2 0xB7C JUMP JUMPDEST PUSH1 0x20 DUP1 DUP3 MSTORE DUP2 ADD PUSH2 0x97E DUP2 PUSH2 0xC72 JUMP JUMPDEST PUSH1 0x12 DUP2 MSTORE PUSH1 0x0 PUSH1 0x20 DUP3 ADD PUSH18 0x11D85B5948185B1C9958591E48195B991959 PUSH1 0x72 SHL DUP2 MSTORE SWAP2 POP PUSH2 0xB7C JUMP JUMPDEST PUSH1 0x20 DUP1 DUP3 MSTORE DUP2 ADD PUSH2 0x97E DUP2 PUSH2 0xCB6 JUMP JUMPDEST PUSH1 0x16 DUP2 MSTORE PUSH1 0x0 PUSH1 0x20 DUP3 ADD PUSH22 0x82E4E4C2F2E640D8CADCCEE8D040DAD2E6DAC2E8C6D PUSH1 0x53 SHL DUP2 MSTORE SWAP2 POP PUSH2 0xB7C JUMP JUMPDEST PUSH1 0x20 DUP1 DUP3 MSTORE DUP2 ADD PUSH2 0x97E DUP2 PUSH2 0xCEF JUMP JUMPDEST PUSH1 0x13 DUP2 MSTORE PUSH1 0x0 PUSH1 0x20 DUP3 ADD PUSH19 0x139BC81C1B185E595C9CC81C1C9BDD9A591959 PUSH1 0x6A SHL DUP2 MSTORE SWAP2 POP PUSH2 0xB7C JUMP JUMPDEST PUSH1 0x20 DUP1 DUP3 MSTORE DUP2 ADD PUSH2 0x97E DUP2 PUSH2 0xD2C JUMP JUMPDEST PUSH4 0x4E487B71 PUSH1 0xE0 SHL PUSH1 0x0 MSTORE PUSH1 0x32 PUSH1 0x4 MSTORE PUSH1 0x24 PUSH1 0x0 REVERT JUMPDEST DUP1 DUP3 ADD DUP1 DUP3 GT ISZERO PUSH2 0x97E JUMPI PUSH2 0x97E PUSH2 0xB93 JUMP JUMPDEST PUSH1 0x15 DUP2 MSTORE PUSH1 0x0 PUSH1 0x20 DUP3 ADD PUSH21 0x14995DD85C991CC8195E18D9595908189D5919D95D PUSH1 0x5A SHL DUP2 MSTORE SWAP2 POP PUSH2 0xB7C JUMP JUMPDEST PUSH1 0x20 DUP1 DUP3 MSTORE DUP2 ADD PUSH2 0x97E DUP2 PUSH2 0xD8F JUMP JUMPDEST DUP2 DUP2 MUL DUP1 DUP3 ISZERO DUP4 DUP3 DIV DUP6 EQ OR PUSH2 0xDE3 JUMPI PUSH2 0xDE3 PUSH2 0xB93 JUMP JUMPDEST POP SWAP3 SWAP2 POP POP JUMP JUMPDEST PUSH4 0x4E487B71 PUSH1 0xE0 SHL PUSH1 0x0 MSTORE PUSH1 0x12 PUSH1 0x4 MSTORE PUSH1 0x24 PUSH1 0x0 REVERT JUMPDEST PUSH1 0x0 DUP3 PUSH2 0xE0F JUMPI PUSH2 0xE0F PUSH2 0xDEA JUMP JUMPDEST POP DIV SWAP1 JUMP JUMPDEST PUSH1 0x16 DUP2 MSTORE PUSH1 0x0 PUSH1 0x20 DUP3 ADD PUSH22 0x496E76616C696420706C617965722061646472657373 PUSH1 0x50 SHL DUP2 MSTORE SWAP2 POP PUSH2 0xB7C JUMP JUMPDEST PUSH1 0x20 DUP1 DUP3 MSTORE DUP2 ADD PUSH2 0x97E DUP2 PUSH2 0xE14 JUMP JUMPDEST PUSH1 0x16 DUP2 MSTORE PUSH1 0x0 PUSH1 0x20 DUP3 ADD PUSH22 0x14995DD85C99081D1C985B9CD9995C8819985A5B1959 PUSH1 0x52 SHL DUP2 MSTORE SWAP2 POP PUSH2 0xB7C JUMP JUMPDEST PUSH1 0x20 DUP1 DUP3 MSTORE DUP2 ADD PUSH2 0x97E DUP2 PUSH2 0xE51 JUMP JUMPDEST DUP2 DUP2 SUB DUP2 DUP2 GT ISZERO PUSH2 0x97E JUMPI PUSH2 0x97E PUSH2 0xB93 JUMP JUMPDEST PUSH1 0x15 DUP2 MSTORE PUSH1 0x0 PUSH1 0x20 DUP3 ADD PUSH21 0x14DD5C9C1B1D5CC81C99599D5B990819985A5B1959 PUSH1 0x5A SHL DUP2 MSTORE SWAP2 POP PUSH2 0xB7C JUMP JUMPDEST PUSH1 0x20 DUP1 DUP3 MSTORE DUP2 ADD PUSH2 0x97E DUP2 PUSH2 0xEA1 JUMP JUMPDEST PUSH1 0x40 DUP2 ADD PUSH2 0xEEB DUP3 DUP6 PUSH2 0x9CD JUMP JUMPDEST PUSH2 0xEF8 PUSH1 0x20 DUP4 ADD DUP5 PUSH2 0x9CD JUMP JUMPDEST SWAP4 SWAP3 POP POP POP JUMP INVALID LOG2 PUSH5 0x6970667358 0x22 SLT KECCAK256 PUSH31 0x9B8E94651A024B646FD0410EEAE7B5A214E63B93B29C8FF00E55A3114AD38F PUSH5 0x736F6C6343 STOP ADDMOD BYTE STOP CALLER "},"methodIdentifiers":{"CREATOR_FEE()":"1a7dfa9f","createGame()":"7255d729","endGame(uint256,address[],uint256[])":"c5411dbd","gameCounter()":"2e0be39a","games(uint256)":"117a5b90","getContractBalance()":"6f9fb98a","getGameDetails(uint256)":"1b31abda","owner()":"8da5cb5b","renounceOwnership()":"715018a6","transferOwnership(address)":"f2fde38b","withdrawFee(uint256)":"be357616"}}}}}