{
  "_format": "hh-sol-artifact-1",
  "contractName": "VIBE",
  "sourceName": "contracts/VIBE.sol",
  "abi": [
    {
      "inputs": [
        {
          "internalType": "address",
          "name": "initialOwner",
          "type": "address"
        }
      ],
      "stateMutability": "nonpayable",
      "type": "constructor"
    },
    {
      "inputs": [
        {
          "internalType": "address",
          "name": "owner",
          "type": "address"
        }
      ],
      "name": "OwnableInvalidOwner",
      "type": "error"
    },
    {
      "inputs": [
        {
          "internalType": "address",
          "name": "account",
          "type": "address"
        }
      ],
      "name": "OwnableUnauthorizedAccount",
      "type": "error"
    },
    {
      "inputs": [],
      "name": "ReentrancyGuardReentrantCall",
      "type": "error"
    },
    {
      "anonymous": false,
      "inputs": [
        {
          "indexed": true,
          "internalType": "uint256",
          "name": "gameId",
          "type": "uint256"
        },
        {
          "indexed": false,
          "internalType": "uint256",
          "name": "amount",
          "type": "uint256"
        }
      ],
      "name": "FeeWithdrawn",
      "type": "event"
    },
    {
      "anonymous": false,
      "inputs": [
        {
          "indexed": true,
          "internalType": "uint256",
          "name": "gameId",
          "type": "uint256"
        },
        {
          "indexed": true,
          "internalType": "address",
          "name": "creator",
          "type": "address"
        },
        {
          "indexed": false,
          "internalType": "uint256",
          "name": "budget",
          "type": "uint256"
        }
      ],
      "name": "GameCreated",
      "type": "event"
    },
    {
      "anonymous": false,
      "inputs": [
        {
          "indexed": true,
          "internalType": "uint256",
          "name": "gameId",
          "type": "uint256"
        },
        {
          "indexed": false,
          "internalType": "uint256",
          "name": "rewardsDistributed",
          "type": "uint256"
        },
        {
          "indexed": false,
          "internalType": "uint256",
          "name": "refunded",
          "type": "uint256"
        }
      ],
      "name": "GameEnded",
      "type": "event"
    },
    {
      "anonymous": false,
      "inputs": [
        {
          "indexed": true,
          "internalType": "address",
          "name": "previousOwner",
          "type": "address"
        },
        {
          "indexed": true,
          "internalType": "address",
          "name": "newOwner",
          "type": "address"
        }
      ],
      "name": "OwnershipTransferred",
      "type": "event"
    },
    {
      "anonymous": false,
      "inputs": [
        {
          "indexed": true,
          "internalType": "uint256",
          "name": "gameId",
          "type": "uint256"
        },
        {
          "indexed": true,
          "internalType": "address",
          "name": "player",
          "type": "address"
        },
        {
          "indexed": false,
          "internalType": "uint256",
          "name": "amount",
          "type": "uint256"
        }
      ],
      "name": "RewardDistributed",
      "type": "event"
    },
    {
      "inputs": [],
      "name": "CREATOR_FEE",
      "outputs": [
        {
          "internalType": "uint256",
          "name": "",
          "type": "uint256"
        }
      ],
      "stateMutability": "view",
      "type": "function"
    },
    {
      "inputs": [],
      "name": "createGame",
      "outputs": [
        {
          "internalType": "uint256",
          "name": "",
          "type": "uint256"
        }
      ],
      "stateMutability": "payable",
      "type": "function"
    },
    {
      "inputs": [
        {
          "internalType": "uint256",
          "name": "_gameId",
          "type": "uint256"
        },
        {
          "internalType": "address[]",
          "name": "_players",
          "type": "address[]"
        },
        {
          "internalType": "uint256[]",
          "name": "_rewards",
          "type": "uint256[]"
        }
      ],
      "name": "endGame",
      "outputs": [],
      "stateMutability": "nonpayable",
      "type": "function"
    },
    {
      "inputs": [],
      "name": "gameCounter",
      "outputs": [
        {
          "internalType": "uint256",
          "name": "",
          "type": "uint256"
        }
      ],
      "stateMutability": "view",
      "type": "function"
    },
    {
      "inputs": [
        {
          "internalType": "uint256",
          "name": "",
          "type": "uint256"
        }
      ],
      "name": "games",
      "outputs": [
        {
          "internalType": "address",
          "name": "gameCreator",
          "type": "address"
        },
        {
          "internalType": "uint256",
          "name": "budget",
          "type": "uint256"
        },
        {
          "internalType": "bool",
          "name": "isEnded",
          "type": "bool"
        },
        {
          "internalType": "uint256",
          "name": "feeCollected",
          "type": "uint256"
        }
      ],
      "stateMutability": "view",
      "type": "function"
    },
    {
      "inputs": [],
      "name": "getContractBalance",
      "outputs": [
        {
          "internalType": "uint256",
          "name": "",
          "type": "uint256"
        }
      ],
      "stateMutability": "view",
      "type": "function"
    },
    {
      "inputs": [
        {
          "internalType": "uint256",
          "name": "_gameId",
          "type": "uint256"
        }
      ],
      "name": "getGameDetails",
      "outputs": [
        {
          "internalType": "address",
          "name": "creator",
          "type": "address"
        },
        {
          "internalType": "uint256",
          "name": "budget",
          "type": "uint256"
        },
        {
          "internalType": "bool",
          "name": "isEnded",
          "type": "bool"
        },
        {
          "internalType": "uint256",
          "name": "feeCollected",
          "type": "uint256"
        }
      ],
      "stateMutability": "view",
      "type": "function"
    },
    {
      "inputs": [],
      "name": "owner",
      "outputs": [
        {
          "internalType": "address",
          "name": "",
          "type": "address"
        }
      ],
      "stateMutability": "view",
      "type": "function"
    },
    {
      "inputs": [],
      "name": "renounceOwnership",
      "outputs": [],
      "stateMutability": "nonpayable",
      "type": "function"
    },
    {
      "inputs": [
        {
          "internalType": "address",
          "name": "newOwner",
          "type": "address"
        }
      ],
      "name": "transferOwnership",
      "outputs": [],
      "stateMutability": "nonpayable",
      "type": "function"
    },
    {
      "inputs": [
        {
          "internalType": "uint256",
          "name": "_gameId",
          "type": "uint256"
        }
      ],
      "name": "withdrawFee",
      "outputs": [],
      "stateMutability": "nonpayable",
      "type": "function"
    },
    {
      "stateMutability": "payable",
      "type": "receive"
    }
  ],
  "bytecode": "0x608060405234801561001057600080fd5b5060405161108638038061108683398101604081905261002f916100fc565b806001600160a01b038116610063576000604051631e4fbdf760e01b815260040161005a9190610134565b60405180910390fd5b61006c81610077565b505060018055610142565b600080546001600160a01b038381166001600160a01b0319831681178455604051919092169283917f8be0079c531659141344cd1fd0a4f28419497f9722a3daafe3b4186f6b6457e09190a35050565b60006001600160a01b0382165b92915050565b6100e3816100c7565b81146100ee57600080fd5b50565b80516100d4816100da565b60006020828403121561011157610111600080fd5b600061011d84846100f1565b949350505050565b61012e816100c7565b82525050565b602081016100d48284610125565b610f35806101516000396000f3fe6080604052600436106100a05760003560e01c8063715018a611610064578063715018a6146101b25780637255d729146101c95780638da5cb5b146101d1578063be357616146101f7578063c5411dbd14610217578063f2fde38b1461023757600080fd5b8063117a5b90146100ac5780631a7dfa9f146101165780631b31abda146101385780632e0be39a146101895780636f9fb98a1461019f57600080fd5b366100a757005b600080fd5b3480156100b857600080fd5b506100fd6100c7366004610984565b600360208190526000918252604090912080546001820154600283015492909301546001600160a01b03909116929160ff169084565b60405161010d94939291906109db565b60405180910390f35b34801561012257600080fd5b5061012b600581565b60405161010d9190610a19565b34801561014457600080fd5b506100fd610153366004610984565b600090815260036020819052604090912080546001820154600283015492909301546001600160a01b039091169360ff90921691565b34801561019557600080fd5b5061012b60025481565b3480156101ab57600080fd5b504761012b565b3480156101be57600080fd5b506101c7610257565b005b61012b61026b565b3480156101dd57600080fd5b506000546001600160a01b031660405161010d9190610a27565b34801561020357600080fd5b506101c7610212366004610984565b610374565b34801561022357600080fd5b506101c7610232366004610a87565b6104b9565b34801561024357600080fd5b506101c7610252366004610b2b565b610884565b61025f6108bf565b61026960006108ec565b565b600061027561093c565b6000341161029e5760405162461bcd60e51b815260040161029590610b83565b60405180910390fd5b600280549060006102ae83610ba9565b9091555050604080516080810182523380825234602080840182815260008587018181526060870182815260028054845260039586905292899020975188546001600160a01b0319166001600160a01b039091161788559251600188015551868201805460ff191691151591909117905590519490910193909355915492519092917f7dfb67e9ff596fca4da65c7eedb128cd1aac553af54b3c0cb733625a2480d8bd9161035c9190610a19565b60405180910390a35060025461037160018055565b90565b61037c6108bf565b61038461093c565b6000818152600360205260409020600281015460ff166103b65760405162461bcd60e51b815260040161029590610be8565b60008160030154116103da5760405162461bcd60e51b815260040161029590610c20565b600381018054600091829055906103f96000546001600160a01b031690565b6001600160a01b03168260405161040f90610c30565b60006040518083038185875af1925050503d806000811461044c576040519150601f19603f3d011682016040523d82523d6000602084013e610451565b606091505b50509050806104725760405162461bcd60e51b815260040161029590610c62565b837f0a86d3615abd799fbaa5be89d4941a68641aec3f02b8f19faff5dfade02817bc836040516104a29190610a19565b60405180910390a25050506104b660018055565b50565b6104c161093c565b600085815260036020526040902080546001600160a01b031633146104f85760405162461bcd60e51b815260040161029590610ca6565b600281015460ff161561051d5760405162461bcd60e51b815260040161029590610cdf565b83821461053c5760405162461bcd60e51b815260040161029590610d1c565b836105595760405162461bcd60e51b815260040161029590610d56565b6000805b838110156105935784848281811061057757610577610d66565b90506020020135826105899190610d7c565b915060010161055d565b5081600101548111156105b85760405162461bcd60e51b815260040161029590610dbb565b60006064600584600101546105cd9190610dcb565b6105d79190610e00565b60038401819055905060005b8681101561077d5760008888838181106105ff576105ff610d66565b90506020020160208101906106149190610b2b565b6001600160a01b03160361063a5760405162461bcd60e51b815260040161029590610e41565b600088888381811061064e5761064e610d66565b90506020020160208101906106639190610b2b565b6001600160a01b031687878481811061067e5761067e610d66565b9050602002013560405161069190610c30565b60006040518083038185875af1925050503d80600081146106ce576040519150601f19603f3d011682016040523d82523d6000602084013e6106d3565b606091505b50509050806106f45760405162461bcd60e51b815260040161029590610e7e565b88888381811061070657610706610d66565b905060200201602081019061071b9190610b2b565b6001600160a01b03168a7fab7542bafced3da2d8c881cb2dd1de859fac7c20d3650d2902ad389a64e0888389898681811061075857610758610d66565b9050602002013560405161076c9190610a19565b60405180910390a3506001016105e3565b506000818385600101546107919190610e8e565b61079b9190610e8e565b905080156108255783546040516000916001600160a01b03169083906107c090610c30565b60006040518083038185875af1925050503d80600081146107fd576040519150601f19603f3d011682016040523d82523d6000602084013e610802565b606091505b50509050806108235760405162461bcd60e51b815260040161029590610ecd565b505b60028401805460ff1916600117905560405189907f60fdf8ff21cc2a16c8c00fc5b24af7989568bb3f6227bc15ab4545a53255f69f906108689086908590610edd565b60405180910390a25050505061087d60018055565b5050505050565b61088c6108bf565b6001600160a01b0381166108b6576000604051631e4fbdf760e01b81526004016102959190610a27565b6104b6816108ec565b6000546001600160a01b03163314610269573360405163118cdaa760e01b81526004016102959190610a27565b600080546001600160a01b038381166001600160a01b0319831681178455604051919092169283917f8be0079c531659141344cd1fd0a4f28419497f9722a3daafe3b4186f6b6457e09190a35050565b60026001540361095f57604051633ee5aeb560e01b815260040160405180910390fd5b6002600155565b805b81146104b657600080fd5b803561097e81610966565b92915050565b60006020828403121561099957610999600080fd5b60006109a58484610973565b949350505050565b60006001600160a01b03821661097e565b6109c7816109ad565b82525050565b806109c7565b8015156109c7565b608081016109e982876109be565b6109f660208301866109cd565b610a0360408301856109d3565b610a1060608301846109cd565b95945050505050565b6020810161097e82846109cd565b6020810161097e82846109be565b60008083601f840112610a4a57610a4a600080fd5b50813567ffffffffffffffff811115610a6557610a65600080fd5b602083019150836020820283011115610a8057610a80600080fd5b9250929050565b600080600080600060608688031215610aa257610aa2600080fd5b6000610aae8888610973565b955050602086013567ffffffffffffffff811115610ace57610ace600080fd5b610ada88828901610a35565b9450945050604086013567ffffffffffffffff811115610afc57610afc600080fd5b610b0888828901610a35565b92509250509295509295909350565b610968816109ad565b803561097e81610b17565b600060208284031215610b4057610b40600080fd5b60006109a58484610b20565b601d81526000602082017f427564676574206d7573742062652067726561746572207468616e2030000000815291505b5060200190565b6020808252810161097e81610b4c565b634e487b7160e01b600052601160045260246000fd5b60006000198203610bbc57610bbc610b93565b5060010190565b600e81526000602082016d11d85b59481b9bdd08195b99195960921b81529150610b7c565b6020808252810161097e81610bc3565b6011815260006020820170139bc8199959481d1bc818dbdb1b1958dd607a1b81529150610b7c565b6020808252810161097e81610bf8565b60008161097e565b6013815260006020820172119959481d1c985b9cd9995c8819985a5b1959606a1b81529150610b7c565b6020808252810161097e81610c38565b601e81526000602082017f4f6e6c792067616d652063726561746f722063616e20656e642067616d65000081529150610b7c565b6020808252810161097e81610c72565b601281526000602082017111d85b5948185b1c9958591e48195b99195960721b81529150610b7c565b6020808252810161097e81610cb6565b6016815260006020820175082e4e4c2f2e640d8cadccee8d040dad2e6dac2e8c6d60531b81529150610b7c565b6020808252810161097e81610cef565b6013815260006020820172139bc81c1b185e595c9cc81c1c9bdd9a591959606a1b81529150610b7c565b6020808252810161097e81610d2c565b634e487b7160e01b600052603260045260246000fd5b8082018082111561097e5761097e610b93565b601581526000602082017414995dd85c991cc8195e18d9595908189d5919d95d605a1b81529150610b7c565b6020808252810161097e81610d8f565b818102808215838204851417610de357610de3610b93565b5092915050565b634e487b7160e01b600052601260045260246000fd5b600082610e0f57610e0f610dea565b500490565b6016815260006020820175496e76616c696420706c61796572206164647265737360501b81529150610b7c565b6020808252810161097e81610e14565b601681526000602082017514995dd85c99081d1c985b9cd9995c8819985a5b195960521b81529150610b7c565b6020808252810161097e81610e51565b8181038181111561097e5761097e610b93565b601581526000602082017414dd5c9c1b1d5cc81c99599d5b990819985a5b1959605a1b81529150610b7c565b6020808252810161097e81610ea1565b60408101610eeb82856109cd565b610ef860208301846109cd565b939250505056fea26469706673582212207e9b8e94651a024b646fd0410eeae7b5a214e63b93b29c8ff00e55a3114ad38f64736f6c634300081a0033",
  "linkReferences": {},
  "deployedLinkReferences": {}
}